{
    "contractName": "zrSignCrossChainFaucetApp",
    "abi": [
        {
            "inputs": [
                {
                    "internalType": "address",
                    "name": "zrSignAddress",
                    "type": "address"
                }
            ],
            "stateMutability": "nonpayable",
            "type": "constructor"
        },
        {
            "inputs": [
                {
                    "internalType": "uint256",
                    "name": "value",
                    "type": "uint256"
                },
                {
                    "internalType": "uint256",
                    "name": "length",
                    "type": "uint256"
                }
            ],
            "name": "StringsInsufficientHexLength",
            "type": "error"
        },
        {
            "anonymous": false,
            "inputs": [
                {
                    "indexed": true,
                    "internalType": "bytes32",
                    "name": "walletTypeId",
                    "type": "bytes32"
                },
                {
                    "indexed": true,
                    "internalType": "address",
                    "name": "owner",
                    "type": "address"
                },
                {
                    "indexed": true,
                    "internalType": "uint256",
                    "name": "walletIndex",
                    "type": "uint256"
                },
                {
                    "indexed": false,
                    "internalType": "bool",
                    "name": "monitoring",
                    "type": "bool"
                }
            ],
            "name": "ZrKeyRequest",
            "type": "event"
        },
        {
            "inputs": [],
            "name": "OPTIONS_MONITORING",
            "outputs": [
                {
                    "internalType": "uint8",
                    "name": "",
                    "type": "uint8"
                }
            ],
            "stateMutability": "view",
            "type": "function"
        },
        {
            "inputs": [],
            "name": "SIG_REQ_ALREADY_PROCESSED",
            "outputs": [
                {
                    "internalType": "uint8",
                    "name": "",
                    "type": "uint8"
                }
            ],
            "stateMutability": "view",
            "type": "function"
        },
        {
            "inputs": [],
            "name": "SIG_REQ_IN_PROGRESS",
            "outputs": [
                {
                    "internalType": "uint8",
                    "name": "",
                    "type": "uint8"
                }
            ],
            "stateMutability": "view",
            "type": "function"
        },
        {
            "inputs": [],
            "name": "WALLET_REGISTERED",
            "outputs": [
                {
                    "internalType": "uint8",
                    "name": "",
                    "type": "uint8"
                }
            ],
            "stateMutability": "view",
            "type": "function"
        },
        {
            "inputs": [],
            "name": "WALLET_REQUESTED",
            "outputs": [
                {
                    "internalType": "uint8",
                    "name": "",
                    "type": "uint8"
                }
            ],
            "stateMutability": "view",
            "type": "function"
        },
        {
            "inputs": [
                {
                    "internalType": "uint8",
                    "name": "options",
                    "type": "uint8"
                }
            ],
            "name": "estimateFee",
            "outputs": [
                {
                    "internalType": "uint256",
                    "name": "mpcFee",
                    "type": "uint256"
                },
                {
                    "internalType": "uint256",
                    "name": "netResp",
                    "type": "uint256"
                },
                {
                    "internalType": "uint256",
                    "name": "total",
                    "type": "uint256"
                }
            ],
            "stateMutability": "view",
            "type": "function"
        },
        {
            "inputs": [],
            "name": "getAmoyMatic",
            "outputs": [],
            "stateMutability": "payable",
            "type": "function"
        },
        {
            "inputs": [
                {
                    "internalType": "uint256",
                    "name": "index",
                    "type": "uint256"
                }
            ],
            "name": "getEVMWallet",
            "outputs": [
                {
                    "internalType": "string",
                    "name": "",
                    "type": "string"
                }
            ],
            "stateMutability": "view",
            "type": "function"
        },
        {
            "inputs": [],
            "name": "getEVMWallets",
            "outputs": [
                {
                    "internalType": "string[]",
                    "name": "",
                    "type": "string[]"
                }
            ],
            "stateMutability": "view",
            "type": "function"
        },
        {
            "inputs": [],
            "name": "getSepoliaEth",
            "outputs": [],
            "stateMutability": "payable",
            "type": "function"
        },
        {
            "inputs": [],
            "name": "getSimpleAmoyMatic",
            "outputs": [],
            "stateMutability": "payable",
            "type": "function"
        },
        {
            "inputs": [],
            "name": "getSimpleSepoliaEth",
            "outputs": [],
            "stateMutability": "payable",
            "type": "function"
        },
        {
            "inputs": [
                {
                    "internalType": "uint8",
                    "name": "options",
                    "type": "uint8"
                }
            ],
            "name": "requestNewEVMWallet",
            "outputs": [],
            "stateMutability": "payable",
            "type": "function"
        },
        {
            "stateMutability": "payable",
            "type": "receive"
        }
    ],
    "bytecode": "60a060405234801561001057600080fd5b50604051611c1a380380611c1a83398101604081905261002f91610154565b6001600160a01b0316608052604080518082018252640ba43b74008152620186a060208083018281527fafa90c317deacd3d68f330a30f96e4fa7736e35e8d1426b2e1b2c04bce1c2fb76000908152600180845294517f7db403662b0e0fbd8a74c2274cd7aeec2920df73158382698119ab8cf1d7be765590517f7db403662b0e0fbd8a74c2274cd7aeec2920df73158382698119ab8cf1d7be775584518086019095526402540be40085528482019283527f4df3b2a1df4e086e001def1ba6466078aa6aaf12e7a183f590364b811b18ee5b90529190915290517f1cf2f09fd4500c77015f460d02ade5e85b60664b114c3edb075b1f0471e89b1155517f1cf2f09fd4500c77015f460d02ade5e85b60664b114c3edb075b1f0471e89b1255610184565b60006020828403121561016657600080fd5b81516001600160a01b038116811461017d57600080fd5b9392505050565b608051611a4a6101d060003960008181610209015281816102f701528181610458015281816104fc015281816108280152818161096801528181610a880152610b2e0152611a4a6000f3fe6080604052600436106100c65760003560e01c806383ae34ea1161007f578063bc48c90411610059578063bc48c90414610139578063c6b4a8f7146101b4578063d2b9227614610108578063f0ebb5da1461010857600080fd5b806383ae34ea1461016957806387cea6171461017157806397d202281461017957600080fd5b806332398d50146100d2578063367bf45614610108578063537183fa1461012f5780635a30349d146101395780637a76284c1461014e5780638224cf671461016157600080fd5b366100cd57005b600080fd5b3480156100de57600080fd5b506100f26100ed36600461142e565b6101d6565b6040516100ff9190611497565b60405180910390f35b34801561011457600080fd5b5061011d600281565b60405160ff90911681526020016100ff565b610137610286565b005b34801561014557600080fd5b5061011d600181565b61013761015c3660046114aa565b6102b3565b6101376103a9565b6101376103d4565b6101376103ff565b34801561018557600080fd5b506101996101943660046114aa565b61042a565b604080519384526020840192909252908201526060016100ff565b3480156101c057600080fd5b506101c96104d0565b6040516100ff91906114cd565b60405163030fcb0360e31b81526000805160206119f58339815191526004820152306024820152604481018290526060907f00000000000000000000000000000000000000000000000000000000000000006001600160a01b03169063187e581890606401600060405180830381865afa158015610258573d6000803e3d6000fd5b505050506040513d6000823e601f3d908101601f1916820160405261028091908101906115e5565b92915050565b6102b17f4df3b2a1df4e086e001def1ba6466078aa6aaf12e7a183f590364b811b18ee5b3334610578565b565b6040805180820182526000805160206119f5833981519152815260ff838116602083019081529251635c706c9b60e01b8152825160048201529251166024830152907f00000000000000000000000000000000000000000000000000000000000000006001600160a01b031690635c706c9b9034906044016000604051808303818588803b15801561034457600080fd5b505af1158015610358573d6000803e3d6000fd5b5050604051600080825293503392506000805160206119f583398151915291507f80017cd6c85f50454715ab38e548cfc85f42dea5bc0f0c881d45059404710d249060200160405180910390a45050565b6102b17fafa90c317deacd3d68f330a30f96e4fa7736e35e8d1426b2e1b2c04bce1c2fb73334610655565b6102b17fafa90c317deacd3d68f330a30f96e4fa7736e35e8d1426b2e1b2c04bce1c2fb73334610578565b6102b17f4df3b2a1df4e086e001def1ba6466078aa6aaf12e7a183f590364b811b18ee5b3334610655565b604051635109e5d560e11b815260ff8216600482015260006024820181905290819081906001600160a01b037f0000000000000000000000000000000000000000000000000000000000000000169063a213cbaa90604401606060405180830381865afa15801561049f573d6000803e3d6000fd5b505050506040513d601f19601f820116820180604052508101906104c3919061161a565b9250925092509193909250565b60405163a11a572d60e01b81526000805160206119f583398151915260048201523060248201526060907f00000000000000000000000000000000000000000000000000000000000000006001600160a01b03169063a11a572d90604401600060405180830381865afa15801561054b573d6000803e3d6000fd5b505050506040513d6000823e601f3d908101601f191682016040526105739190810190611648565b905090565b60006105a44660405160200161059091815260200190565b604051602081830303815290604052610740565b600085815260016020818152604080842081518083019092528054825290920154908201529192506105d6600261042a565b505090506000826020015183600001516105f09190611714565b6105fa838761172b565b610604919061172b565b905061062d6000805160206119f58339815191526001896106248a61074b565b858960016107fb565b60008781526020819052604081208054916106478361173e565b919050555050505050505050565b600083815260016020818152604080842081518083018352815481529301548383015251919291610690916105909146910190815260200190565b9050600061069e600161042a565b505090506000836020015184600001516106b89190611714565b6106c2838761172b565b6106cc919061172b565b905060006106f86000808a815260200190815260200160002054866000015187602001518a86896109f1565b90506107176000805160206119f583398151915260008a846001610a5b565b60008881526020819052604081208054916107318361173e565b91905055505050505050505050565b606061028082610bb4565b6060600061075883610c23565b6028602282012090915060601c60295b60018111156107f257600782600f1611801561079d5750606083828151811061079357610793611757565b016020015160f81c115b156107db57602060f81b8382815181106107b9576107b9611757565b0160200180516001600160f81b031990811690921890911690600082901a9053505b60049190911c906107eb8161176d565b9050610768565b50909392505050565b60405163b933e46f60e01b81526004810188905230602482015260448101879052600060648201819052907f00000000000000000000000000000000000000000000000000000000000000006001600160a01b03169063b933e46f90608401606060405180830381865afa158015610877573d6000803e3d6000fd5b505050506040513d601f19601f8201168201806040525081019061089b919061161a565b60408051606081018252898152602081018990528082018890529051635f4ad97f60e11b81529194506000935073__$783a57a0da184f39e33ba343c39d483c2a$__925063be95b2fe916108f29190600401611784565b600060405180830381865af415801561090f573d6000803e3d6000fd5b505050506040513d6000823e601f3d908101601f1916820160405261093791908101906117d0565b905060006040518060a001604052808b81526020018a815260200189815260200183815260200185151581525090507f00000000000000000000000000000000000000000000000000000000000000006001600160a01b03166393f874c484836040518363ffffffff1660e01b81526004016109b39190611819565b6000604051808303818588803b1580156109cc57600080fd5b505af11580156109e0573d6000803e3d6000fd5b505050505050505050505050505050565b606060006109fe88610c39565b90506000610a0b88610c39565b90506000610a1888610c39565b90506000610a2e886001600160a01b0316610c4c565b90506000610a3b88610c39565b9050610a4b85858585858c610c84565b9c9b505050505050505050505050565b60405163b933e46f60e01b81526004810186905230602482015260448101859052600060648201819052907f00000000000000000000000000000000000000000000000000000000000000006001600160a01b03169063b933e46f90608401606060405180830381865afa158015610ad7573d6000803e3d6000fd5b505050506040513d601f19601f82011682018060405250810190610afb919061161a565b9250505060006040518060a0016040528088815260200187815260200186815260200185815260200184151581525090507f00000000000000000000000000000000000000000000000000000000000000006001600160a01b03166393f874c483836040518363ffffffff1660e01b8152600401610b799190611819565b6000604051808303818588803b158015610b9257600080fd5b505af1158015610ba6573d6000803e3d6000fd5b505050505050505050505050565b60608082516001148015610be25750608083600081518110610bd857610bd8611757565b016020015160f81c105b15610bee575081610280565b610bfa83516080610df3565b83604051602001610c0c92919061186b565b604051602081830303815290604052905092915050565b60606102806001600160a01b0383166014610fa2565b6060610280610c4783611126565b610bb4565b604051606082811b6bffffffffffffffffffffffff191660208301529061028090603401604051602081830303815290604052610bb4565b60606000610c926000610c39565b604080516009808252610140820190925291925060009190816020015b6060815260200190600190039081610caf5790505090508881600081518110610cda57610cda611757565b60200260200101819052508781600181518110610cf957610cf9611757565b60200260200101819052508681600281518110610d1857610d18611757565b60200260200101819052508581600381518110610d3757610d37611757565b60200260200101819052508481600481518110610d5657610d56611757565b60200260200101819052508381600581518110610d7557610d75611757565b60200260200101819052508181600681518110610d9457610d94611757565b60200260200101819052508181600781518110610db357610db3611757565b60200260200101819052508181600881518110610dd257610dd2611757565b6020026020010181905250610de68161125e565b9998505050505050505050565b6060806038841015610e5a5760408051600180825281830190925290602082018180368337019050509050610e28838561189a565b60f81b81600081518110610e3e57610e3e611757565b60200101906001600160f81b031916908160001a905350610f9b565b600060015b610e6981876118c9565b15610e8f5781610e788161173e565b9250610e88905061010082611714565b9050610e5f565b610e9a8260016118dd565b67ffffffffffffffff811115610eb257610eb261152f565b6040519080825280601f01601f191660200182016040528015610edc576020820181803683370190505b509250610ee9858361189a565b610ef490603761189a565b60f81b83600081518110610f0a57610f0a611757565b60200101906001600160f81b031916908160001a905350600190505b818111610f9857610100610f3a828461172b565b610f46906101006119d4565b610f5090886118c9565b610f5a91906119e0565b60f81b838281518110610f6f57610f6f611757565b60200101906001600160f81b031916908160001a90535080610f908161173e565b915050610f26565b50505b9392505050565b6060826000610fb2846002611714565b610fbd9060026118dd565b67ffffffffffffffff811115610fd557610fd561152f565b6040519080825280601f01601f191660200182016040528015610fff576020820181803683370190505b509050600360fc1b8160008151811061101a5761101a611757565b60200101906001600160f81b031916908160001a905350600f60fb1b8160018151811061104957611049611757565b60200101906001600160f81b031916908160001a905350600061106d856002611714565b6110789060016118dd565b90505b60018111156110f0576f181899199a1a9b1b9c1cb0b131b232b360811b83600f16601081106110ac576110ac611757565b1a60f81b8282815181106110c2576110c2611757565b60200101906001600160f81b031916908160001a90535060049290921c916110e98161176d565b905061107b565b50811561111e5760405163e22e27eb60e01b8152600481018690526024810185905260440160405180910390fd5b949350505050565b606060008260405160200161113d91815260200190565b604051602081830303815290604052905060005b60208110156111945781818151811061116c5761116c611757565b01602001516001600160f81b031916600003611194578061118c8161173e565b915050611151565b60006111a182602061172b565b67ffffffffffffffff8111156111b9576111b961152f565b6040519080825280601f01601f1916602001820160405280156111e3576020820181803683370190505b50905060005b81518110156112555783836111fd8161173e565b94508151811061120f5761120f611757565b602001015160f81c60f81b82828151811061122c5761122c611757565b60200101906001600160f81b031916908160001a9053508061124d8161173e565b9150506111e9565b50949350505050565b6060600061126b836112a2565b9050611279815160c0610df3565b8160405160200161128b92919061186b565b604051602081830303815290604052915050919050565b606081516000036112c157505060408051600081526020810190915290565b6000805b8351811015611308578381815181106112e0576112e0611757565b602002602001015151826112f491906118dd565b9150806113008161173e565b9150506112c5565b60008267ffffffffffffffff8111156113235761132361152f565b6040519080825280601f01601f19166020018201604052801561134d576020820181803683370190505b50600092509050602081015b855183101561125557600086848151811061137657611376611757565b602002602001015190506000602082019050611394838284516113d1565b8785815181106113a6576113a6611757565b602002602001015151836113ba91906118dd565b9250505082806113c99061173e565b935050611359565b8282825b6020811061140d57815183526113ec6020846118dd565b92506113f96020836118dd565b915061140660208261172b565b90506113d5565b905182516020929092036101000a6000190180199091169116179052505050565b60006020828403121561144057600080fd5b5035919050565b60005b8381101561146257818101518382015260200161144a565b50506000910152565b60008151808452611483816020860160208601611447565b601f01601f19169290920160200192915050565b602081526000610f9b602083018461146b565b6000602082840312156114bc57600080fd5b813560ff81168114610f9b57600080fd5b6000602080830181845280855180835260408601915060408160051b870101925083870160005b8281101561152257603f1988860301845261151085835161146b565b945092850192908501906001016114f4565b5092979650505050505050565b634e487b7160e01b600052604160045260246000fd5b604051601f8201601f1916810167ffffffffffffffff8111828210171561156e5761156e61152f565b604052919050565b600067ffffffffffffffff8311156115905761159061152f565b6115a3601f8401601f1916602001611545565b90508281528383830111156115b757600080fd5b610f9b836020830184611447565b600082601f8301126115d657600080fd5b610f9b83835160208501611576565b6000602082840312156115f757600080fd5b815167ffffffffffffffff81111561160e57600080fd5b61111e848285016115c5565b60008060006060848603121561162f57600080fd5b8351925060208401519150604084015190509250925092565b6000602080838503121561165b57600080fd5b825167ffffffffffffffff8082111561167357600080fd5b818501915085601f83011261168757600080fd5b8151818111156116995761169961152f565b8060051b6116a8858201611545565b91825283810185019185810190898411156116c257600080fd5b86860192505b83831015610de6578251858111156116e05760008081fd5b6116ee8b89838a01016115c5565b83525091860191908601906116c8565b634e487b7160e01b600052601160045260246000fd5b8082028115828204841417610280576102806116fe565b81810381811115610280576102806116fe565b600060018201611750576117506116fe565b5060010190565b634e487b7160e01b600052603260045260246000fd5b60008161177c5761177c6116fe565b506000190190565b6020815260008251606060208401526117a0608084018261146b565b9050602084015160408401526040840151601f198483030160608501526117c7828261146b565b95945050505050565b6000602082840312156117e257600080fd5b815167ffffffffffffffff8111156117f957600080fd5b8201601f8101841361180a57600080fd5b61111e84825160208401611576565b602081528151602082015260208201516040820152604082015160608201526000606083015160a0608084015261185360c084018261146b565b90506080840151151560a08401528091505092915050565b6000835161187d818460208801611447565b835190830190611891818360208801611447565b01949350505050565b60ff8181168382160190811115610280576102806116fe565b634e487b7160e01b600052601260045260246000fd5b6000826118d8576118d86118b3565b500490565b80820180821115610280576102806116fe565b600181815b8085111561192b578160001904821115611911576119116116fe565b8085161561191e57918102915b93841c93908002906118f5565b509250929050565b60008261194257506001610280565b8161194f57506000610280565b8160018114611965576002811461196f5761198b565b6001915050610280565b60ff841115611980576119806116fe565b50506001821b610280565b5060208310610133831016604e8410600b84101617156119ae575081810a610280565b6119b883836118f0565b80600019048211156119cc576119cc6116fe565b029392505050565b6000610f9b8383611933565b6000826119ef576119ef6118b3565b50069056fee146c2986893c43af5ff396310220be92058fb9f4ce76b929b80ef0d5307100aa2646970667358221220cedb04acaed073f7f5827d8aa310a6890e1a7c65ee33a008e8c1c751371bd0a364736f6c63430008130033",
    "sourcePath": "/Users/chiragkumar/Desktop/zenPayWallet/zen_contract/src/zr/zrSignCrossChainFaucetApp.sol",
    "compiler": {
        "name": "solc",
        "version": "0.8.19+commit.7dd6d404"
    },
    "functionHashes": {
        "OPTIONS_MONITORING()": "d2b92276",
        "SIG_REQ_ALREADY_PROCESSED()": "f0ebb5da",
        "SIG_REQ_IN_PROGRESS()": "5a30349d",
        "WALLET_REGISTERED()": "367bf456",
        "WALLET_REQUESTED()": "bc48c904",
        "estimateFee(uint8)": "97d20228",
        "getAmoyMatic()": "87cea617",
        "getEVMWallet(uint256)": "32398d50",
        "getEVMWallets()": "c6b4a8f7",
        "getSepoliaEth()": "8224cf67",
        "getSimpleAmoyMatic()": "537183fa",
        "getSimpleSepoliaEth()": "83ae34ea",
        "requestNewEVMWallet(uint8)": "7a76284c"
    },
    "gasEstimates": {
        "creation": {
            "codeDepositCost": "1346000",
            "executionCost": "infinite",
            "totalCost": "infinite"
        },
        "external": {
            "OPTIONS_MONITORING()": "270",
            "SIG_REQ_ALREADY_PROCESSED()": "292",
            "SIG_REQ_IN_PROGRESS()": "271",
            "WALLET_REGISTERED()": "227",
            "WALLET_REQUESTED()": "226",
            "estimateFee(uint8)": "infinite",
            "getAmoyMatic()": "infinite",
            "getEVMWallet(uint256)": "infinite",
            "getEVMWallets()": "infinite",
            "getSepoliaEth()": "infinite",
            "getSimpleAmoyMatic()": "infinite",
            "getSimpleSepoliaEth()": "infinite",
            "requestNewEVMWallet(uint8)": "infinite"
        },
        "internal": {
            "_submitSimpleTransaction(bytes32,address,uint256)": "infinite",
            "_submitTransaction(bytes32,address,uint256)": "infinite"
        }
    }
}