{
    "contractName": "SignTypes",
    "abi": [
        {
            "inputs": [
                {
                    "internalType": "bytes",
                    "name": "simpleTxData",
                    "type": "bytes"
                }
            ],
            "name": "decodeSimpleTx",
            "outputs": [
                {
                    "internalType": "string",
                    "name": "to",
                    "type": "string"
                },
                {
                    "internalType": "uint256",
                    "name": "value",
                    "type": "uint256"
                },
                {
                    "internalType": "bytes4",
                    "name": "signature",
                    "type": "bytes4"
                },
                {
                    "internalType": "bytes",
                    "name": "data",
                    "type": "bytes"
                }
            ],
            "stateMutability": "pure",
            "type": "function"
        },
        {
            "inputs": [
                {
                    "components": [
                        {
                            "internalType": "string",
                            "name": "to",
                            "type": "string"
                        },
                        {
                            "internalType": "uint256",
                            "name": "value",
                            "type": "uint256"
                        },
                        {
                            "internalType": "bytes",
                            "name": "data",
                            "type": "bytes"
                        }
                    ],
                    "internalType": "struct SignTypes.SimpleTx",
                    "name": "self",
                    "type": "tuple"
                }
            ],
            "name": "encodeSimple",
            "outputs": [
                {
                    "internalType": "bytes",
                    "name": "",
                    "type": "bytes"
                }
            ],
            "stateMutability": "pure",
            "type": "function"
        }
    ],
    "bytecode": "6104cb61003a600b82828239805160001a60731461002d57634e487b7160e01b600052600060045260246000fd5b30600052607381538281f3fe73000000000000000000000000000000000000000030146080604052600436106100405760003560e01c806384517a6514610045578063be95b2fe14610071575b600080fd5b61005861005336600461012c565b610091565b60405161006894939291906101e4565b60405180910390f35b61008461007f3660046102ce565b6100d9565b604051610068919061037f565b6060600080826100a46004838789610399565b6100ad916103c3565b91506100bc8560048189610399565b8101906100c991906103f3565b9198909750929550935090915050565b60608160000151826020015183604001516040516024016100fc93929190610460565b60408051601f198184030181529190526020810180516001600160e01b03166326ded46b60e11b17905292915050565b6000806020838503121561013f57600080fd5b823567ffffffffffffffff8082111561015757600080fd5b818501915085601f83011261016b57600080fd5b81358181111561017a57600080fd5b86602082850101111561018c57600080fd5b60209290920196919550909350505050565b6000815180845260005b818110156101c4576020818501810151868301820152016101a8565b506000602082860101526020601f19601f83011685010191505092915050565b6080815260006101f7608083018761019e565b602083018690526001600160e01b0319851660408401528281036060840152610220818561019e565b979650505050505050565b634e487b7160e01b600052604160045260246000fd5b600082601f83011261025257600080fd5b813567ffffffffffffffff8082111561026d5761026d61022b565b604051601f8301601f19908116603f011681019082821181831017156102955761029561022b565b816040528381528660208588010111156102ae57600080fd5b836020870160208301376000602085830101528094505050505092915050565b6000602082840312156102e057600080fd5b813567ffffffffffffffff808211156102f857600080fd5b908301906060828603121561030c57600080fd5b6040516060810181811083821117156103275761032761022b565b60405282358281111561033957600080fd5b61034587828601610241565b8252506020830135602082015260408301358281111561036457600080fd5b61037087828601610241565b60408301525095945050505050565b602081526000610392602083018461019e565b9392505050565b600080858511156103a957600080fd5b838611156103b657600080fd5b5050820193919092039150565b6001600160e01b031981358181169160048510156103eb5780818660040360031b1b83161692505b505092915050565b60008060006060848603121561040857600080fd5b833567ffffffffffffffff8082111561042057600080fd5b61042c87838801610241565b945060208601359350604086013591508082111561044957600080fd5b5061045686828701610241565b9150509250925092565b606081526000610473606083018661019e565b846020840152828103604084015261048b818561019e565b969550505050505056fea26469706673582212207a564a6d979377384687a4936d03c5480105e7bb078acff5cfb6d539ec6bb47164736f6c63430008130033",
    "sourcePath": "/Users/chiragkumar/Desktop/zenPayWallet/zen_contract/src/zr/libraries/SignTypes.sol",
    "compiler": {
        "name": "solc",
        "version": "0.8.19+commit.7dd6d404"
    },
    "functionHashes": {
        "decodeSimpleTx(bytes)": "84517a65",
        "encodeSimple(SignTypes.SimpleTx)": "be95b2fe"
    },
    "gasEstimates": {
        "creation": {
            "codeDepositCost": "245400",
            "executionCost": "318",
            "totalCost": "245718"
        },
        "external": {
            "decodeSimpleTx(bytes)": "infinite",
            "encodeSimple(SignTypes.SimpleTx)": "infinite"
        }
    }
}